:030000000208A44F
:0C08A400787FE4F6D8FD75812A0208EB8D
:1008000048656C6C6F20576F726C64000D0A003184
:100810002E204368617220546573740D0A00322ED5
:1008200020537472696E6720546573740D0A004515
:100830006E74657220596F75722043686F696365C5
:100840002E2E0D0A00456E74657220436861722E6B
:100850002E0D0A00456E74657265642043686172EE
:10086000203A2000456E74657220537472696E6779
:1008700020284D61782033322042797465290D0A91
:1008800000456E746572656420537472696E6720EA
:100890003A2000496E76616C69642043686F696331
:0408A000650D0A00D8
:10093000120A177BFF7A087900806B7BFF7A0879AF
:100940000C120A047BFF7A08790F120A047BFF7AE3
:1009500008791E120A047BFF7A08792F120A041202
:100960000A2E8F2AE52A24CE602104703E7BFF7A6E
:10097000087945120A04120A2E8F2A7BFF7A087919
:1009800054120A04AF2A120A2680B07BFF7A087933
:1009900064120A041209B67BFF7A087981120A04EC
:1009A0007B007A007908120A0480907BFF7A08792C
:0609B00093120A04808589
:040A36000228000092
:0F0A1700758920759850758BFD758DFDD28E22D7
:080A26008F993099FDC299225D
:100A04001209EBFF600C120A26740129F9E43AFA80
:030A140080EE224F
:070A2E003098FDAF99C2985A
:010A3500229E
:1009B600E4F528F529120A2EEF640D600EEF640A9D
:1009C600600974082529F8A607800874082529F8FF
:1009D600E4F6220529E52970020528C39420E528B6
:0409E600940040D168
:0109EA0022EA
:1008B000020930E493A3F8E493A34003F68001F225
:1008C00008DFF48029E493A3F85407240CC8C33349
:1008D000C4540F4420C8834004F456800146F6DF18
:1008E000E4800B0102040810204080900A36E47E68
:1008F000019360BCA3FF543F30E509541FFEE4930D
:10090000A360010ECF54C025E060A840B8E493A3D3
:10091000FAE493A3F8E493A3C8C582C8CAC583CAFE
:10092000F0A3C8C582C8CAC583CADFE9DEE780BEB6
:010A3A0000BB
:1009EB00BB010689828A83E0225002E722BBFE020A
:0909FB00E32289828A83E493223D
:00000001FF
