:030000000208D023
:0C08D000787FE4F6D8FD75810C0208C2A8
:0C08DC0048656C6C6F20576F726C6400F4
:0E08C20012082A7BFF7A0879DC12087480F590
:10082A00E4F5A07D02FF12084F7D28E4FF12084F6D
:10083A007D0CE4FF12084F7D06E4FF12084F7D800D
:05084A00E4FF02084F6D
:04084F008F0B8D0C72
:100853001208B253A00FE50B24FF92A0C2A1E50C2E
:10086300120800C2A253A00FE50CC4120800C2A2D2
:010873002262
:0A08000054F042A0D2A27F057E0052
:10080A00E4FDFCC3ED9FEC9E5015E4FBFA0BBB0024
:0F081A00010ABA04F8BBB0F50DBD00010C80E473
:0108290022AC
:100874008B088A09890AAB08AA09A90A120899FDF2
:1008840060127F0112084F7401250AF50AE4350944
:05089400F50980E222DD
:1008B200D2A7C2A0D2A130A706C2A2D2A280F7229A
:10089900BB010689828A83E0225002E722BBFE025D
:0908A900E32289828A83E4932290
:00000001FF
