:030000000208BA39
:0C08BA00787FE4F6D8FD75810B0208ACD5
:0C08C60048656C6C6F20576F726C64000A
:10082A00E4F5A07D02FF1208747D28E4FF12087423
:10083A007D0CE4FF1208747D06E4FF1208747D80C3
:05084A00E4FF02087448
:020874008D0BEA
:1008760053A00FEF24FF92A0C2A1E50B120800C2FD
:0C088600A253A00FE50BC4120800C2A290
:010892002243
:0A08000054F042A0D2A27F057E0052
:10080A00E4FDFCC3ED9FEC9E5015E4FBFA0BBB0024
:0F081A00010ABA04F8BBB0F50DBD00010C80E473
:0108290022AC
:10084F008B088A09890AAB08AA09A90A120893FD1D
:10085F0060127F011208747401250AF50AE4350944
:05086F00F50980E22202
:0E08AC0012082A7BFF7A0879C612084F80F5E1
:10089300BB010689828A83E0225002E722BBFE0263
:0908A300E32289828A83E4932296
:00000001FF
