:030000000208E40F
:0C08E400787FE4F6D8FD75812C02092B0A
:050B2F0012097080FEB8
:040B34000228000093
:0F0B1000758920759850758BFD758DFDD28E22DD
:080B1F008F993099FDC2992263
:100AFD00120AE4FF600C120B1F740129F9E43AFA93
:030B0D0080EE2255
:070B27003098FDAF99C29860
:010B2E0022A4
:100A7500E4F528F529120B27EF640D600EEF640AE3
:100A8500600974082529F8A607800874082529F83F
:100A9500E4F6220529E52970020528C39420E528F6
:040AA500940040D1A8
:010AA900222A
:100AAA00E4FDFCC3ED9FEC9E5015E4FBFA0BBB0082
:0F0ABA00010ABA04F8BBB0F50DBD00010C80E4D1
:010AC900220A
:1008000041540D000041542B434D47463D310D00EE
:100810000041542B434D47533D5858585858585849
:100820005858580D000048656C6C6F212052696360
:1008300068617264205061726B65722E200D000039
:1008400048656C6C6F20576F726C64000D0A003144
:100850002E204368617220546573740D0A00322E95
:1008600020537472696E6720546573740D0A0045D5
:100870006E74657220596F75722043686F69636585
:100880002E2E0D0A00456E74657220436861722E2B
:100890002E0D0A00456E74657265642043686172AE
:1008A000203A2000456E74657220537472696E6739
:1008B00020284D61782033322042797465290D0A51
:1008C00000456E746572656420537472696E6720AA
:1008D0003A2000496E76616C69642043686F6963F1
:0408E000650D0A0098
:100ACA00120A75E508B44F0CE509B44B07E4F508BA
:0A0ADA00FE7F0122E4F508FEFF2272
:1009F600E4F52AF52B7BFF7A087900120AFD7FE8D9
:100A06007E03120AAA052BE52B7002052AC394055C
:100A1600E52A648094805050120ACAEF64014E7031
:100A2600D4F52AF52B7BFF7A087905120AFD7FE8B3
:100A36007E03120AAA052BE52B7002052AC394052C
:100A4600E52A648094805020120ACAEF64014E7031
:100A5600D47BFF7A087911120AFD7BFF7A08792682
:0F0A6600120AFD7F1A120B1F7FE87E03020AAAF5
:10097000120B107BFF7A087940806B7BFF7A087935
:100980004C120AFD7BFF7A08794F120AFD7BFF7A31
:1009900008795E120AFD7BFF7A08796F120AFD1250
:1009A0000B278F2CE52C24CE602104703E7BFF7A30
:1009B000087985120AFD120B278F2C7BFF7A0879A4
:1009C00094120AFDAF2C120B1F80B07BFF7A0879BE
:1009D000A4120AFD120A757BFF7A0879C1120AFD7A
:1009E0007B007A007908120AFD80907BFF7A0879F3
:0609F000D3120AFD808510
:1008F000020B2FE493A3F8E493A34003F68001F2E4
:1009000008DFF48029E493A3F85407240CC8C33308
:10091000C4540F4420C8834004F456800146F6DFD7
:10092000E4800B0102040810204080900B34E47E28
:10093000019360BCA3FF543F30E509541FFEE493CC
:10094000A360010ECF54C025E060A840B8E493A393
:10095000FAE493A3F8E493A3C8C582C8CAC583CABE
:10096000F0A3C8C582C8CAC583CADFE9DEE780BE76
:010B380000BC
:100AE400BB010689828A83E0225002E722BBFE0210
:090AF400E32289828A83E4932243
:00000001FF
